S00D0000536576656E2E7372656316
S11300000C942A000C943F000C943F000C943F0085
S11300100C943F000C943F000C943F000C943F0060
S11300200C943F000C943F000C943F000C943F0050
S11300300C943F000C943F000C943F000C943F0040
S11300400C943F000C943F000C943F000C943F0030
S11300500C943F0011241FBECFE5D4E0DEBFCDBF1A
S113006010E0A0E6B0E0E8EEF0E002C005900D92EA
S1130070AA36B107D9F70E9441000C9472000C947F
S11300800000CF93DF93CDB7DEB72A970FB6F8946D
S1130090DEBF0FBECDBF8FEF87BB8ABB8AE0E0E631
S11300A0F0E0DE01119601900D928A95E1F79E0130
S11300B0255F3F4FDE0111968D918BBBFE0131967A
S11300C0819188BB4FE38DE093E0415080409040A4
S11300D0E1F700C00000E217F30791F7A217B30796
S10B00E059F7E8CFF894FFCFB3
S10D00E8C0F9A4B0999282F8809048
S9030000FC
