S01300006932635F646576696365732E73726563D1
S11300000C942A000C9434000C9434000C943400A6
S11300100C9434000C9434000C9434000C9434008C
S11300200C9434000C9434000C9434000C9434007C
S11300300C9434000C9434000C9434000C9434006C
S11300400C9434000C9434000C9434000C9434005C
S11300500C94340011241FBECFE5D4E0DEBFCDBF25
S11300600E9497000C94BF000C94000088E080B9B3
S113007086B7846E86BF06B607FEFDCF0895189A2C
S113008019981A9A8FE19EE40197F1F700C00000D5
S11300901A98089586B7846C86BF06B607FEFDCF0E
S11300A00895CF93C82F807F83B90E944A000E948D
S11300B03F000E944A0020E1C29FC001112483B97D
S11300C00E944A000E943F000E944A00CF91089576
S11300D0189819981A9A8FE19EE40197F1F700C0D5
S11300E000001A980895CF93C82F807F83B90E9487
S11300F04A000E9468000E944A0020E1C29FC00199
S1130100112483B90E944A000E9468000E944A0098
S1130110CF91089582E00E94730088E20E947300E8
S113012081E00E94730080E80E9473000895CF93D9
S1130130DF930E9436000E948A00C5E0D0E088E484
S11301400E9451002FEF80E792E0215080409040C0
S1130150E1F700C0000087E50E9451002FEF80E71F
S113016092E0215080409040E1F700C000002197C8
S113017031F786B7846D86BFDF91CF910895F894E7
S1050180FFCFAB
S9030000FC
