:100000000C942A000C943F000C943F000C943F0089
:100010000C943F000C943F000C943F000C943F0064
:100020000C943F000C943F000C943F000C943F0054
:100030000C943F000C943F000C943F000C943F0044
:100040000C943F000C943F000C943F000C943F0034
:100050000C943F0011241FBECFE5D4E0DEBFCDBF1E
:1000600010E0A0E6B0E0E8EDF1E002C005900D92EE
:10007000AC37B107D9F70E94D0000C94EA000C9479
:100080000000282F207F22BB90989198929A9298F6
:1000900020ED37E0F9013197F1F790E044E0880F67
:1000A000991F4A95E1F782BB90989198929A9298FD
:1000B000C9010197F1F708958FEF81BB82E00E949B
:1000C000410088E20E9441008EE00E9441000895B4
:1000D000282F207F22BB909A9198929A929820ED97
:1000E00037E0F9013197F1F790E054E0880F991F5C
:1000F0005A95E1F782BB909A9198929A9298C90189
:100100000197F1F708950F931F93CF93DF93EC01BD
:1001100008EC10E00AC00E94680088EB9BE0F80140
:100120003197F1F70197D9F721968881882399F7BC
:10013000DF91CF911F910F910895DF93CF93CDB7AA
:10014000DEB76B970FB6F894DEBF0FBECDBFDE01F2
:100150001196E0E6F0E08BE001900D928150E1F71E
:10016000DE011C96EBE6F0E080E101900D928150FB
:10017000E1F780E80E944100CE0101960E948300D1
:1001800080EC0E944100CE010C960E9483006B9689
:100190000FB6F894DEBF0FBECDBFCF91DF910895AB
:1001A0000E945C000E949D0081E00E944100FACF05
:1001B000909A9198929A929880ED97E00197F1F732
:1001C000089590989198929A929880ED97E001976F
:0801D000F1F70895F894FFCF48
:1001D800474F44204953204F4E450042555420571D
:0C01E800484F2042454C4945565300004A
:00000001FF
