:100000000C942A000C9447000C9447000C94470071
:100010000C9447000C9447000C9447000C94470044
:100020000C9447000C9447000C9447000C94470034
:100030000C9447000C9447000C9447000C94470024
:100040000C9447000C9447000C9447000C94470014
:100050000C94470011241FBECFE5D4E0DEBFCDBF16
:1000600010E0A0E6B0E0E0E4F2E002C005900D92FE
:10007000A23AB107D9F720E0A2EAB0E001C01D9290
:10008000AF3AB207E1F70E94B7000C941E010C943E
:10009000000083E389B9549A80B5866880BD0895CD
:1000A000D89AD998DA9A8FEC97E00197F1F700C0C7
:1000B0000000DA988FEC97E00197F1F700C000009C
:1000C0000895CF93C82F807F8BBB0E94500020E102
:1000D000C29FC00111248BBB0E945000CF91089594
:1000E000CF93DF93EC018881882379F021960E94D9
:1000F00061002FEF80E792E0215080409040E1F7CF
:1001000000C0000089918111F2CFDF91CF91089555
:10011000D898D998DA9A8FEC97E00197F1F700C058
:100120000000DA988FEC97E00197F1F700C000002B
:100130000895CF93C82F807F8BBB0E94880020E159
:10014000C29FC00111248BBB0E948800CF910895EB
:100150008FEF8ABB82E00E94990088E20E9499009A
:100160008EE00E94990086E00E94990008950E9406
:10017000A8000E9449008AE790E00E947000CEEA41
:10018000D0E002EA10E06894FF24F1F8E2EAF0E03F
:100190005F9BFECF8CB18193EC17FD07C9F7F80187
:1001A00014866DE670E0C8010E941501892BA1F448
:1001B00081E00E94990080E80E94990080E890E028
:1001C0000E947000FFEF21E18AE7F150204080405B
:1001D000E1F700C00000DACF60E670E0C8010E94DD
:1001E0001501892BB9F481E00E94990080E80E94F2
:1001F000990088E890E00E94700081E088BB9FEF42
:10020000E1E1FAE79150E040F040E1F700C0000082
:10021000F8BABCCF81E00E94990080EC0E9499005E
:1002200083E990E00E947000B1CFFB01DC018D9169
:10023000019080190110D9F3990B0895F894FFCF1C
:100240003230303032433646353433370032303096
:100250003032434330344538320068656C6C6F008F
:100260004869205A6169640048692048617273686E
:10027000616C004163636573732044656E696564F6
:0202800000007C
:00000001FF
