:100000000C942A000C9434000C9434000C943400AA
:100010000C9434000C9434000C9434000C94340090
:100020000C9434000C9434000C9434000C94340080
:100030000C9434000C9434000C9434000C94340070
:100040000C9434000C9434000C9434000C94340060
:100050000C94340011241FBECFE5D4E0DEBFCDBF29
:100060000E948B000C9492000C94000083E389B9E9
:10007000549A80B5866880BD0895D89AD998DA9A3E
:10008000DA988FEC97E00197F1F700C0000008952F
:10009000CF93C82F807F8BBB0E943D0020E1C29F81
:1000A000C00111248BBB0E943D00CF9108955F9B3E
:1000B000FECF8CB190E09C01215631092A313105E7
:1000C00008F480970E9448000895D898D998DA9A41
:1000D000DA988FEC97E00197F1F700C000000895DF
:1000E000CF93C82F807F8BBB0E94650020E1C29F09
:1000F000C00111248BBB0E946500CF9108958FEF42
:100100008ABB82E00E94700088E20E9470008EE04C
:100110000E94700008950E947F000E9436000E9495
:080120005700FDCFF894FFCF5A
:00000001FF
