:100000000C942A000C9434000C9434000C943400AA
:100010000C9434000C9434000C9434000C94340090
:100020000C9434000C9434000C9434000C94340080
:100030000C9434000C9434000C9434000C94340070
:100040000C9434000C9434000C9434000C94340060
:100050000C94340011241FBECFE5D4E0DEBFCDBF29
:100060000E9436000C9452000C9400008FEF8ABB63
:1000700041E050E080E090E09A01082E02C0220F9B
:10008000331F0A94E2F72BBB2FEF30E762E02150D9
:1000900030406040E1F700C00000019688309105D3
:0800A00059F7E8CFF894FFCFF7
:00000001FF
