:100000000C942A000C9434000C9434000C943400AA
:100010000C9434000C9434000C9434000C94340090
:100020000C9434000C9434000C9434000C94340080
:100030000C9434000C9434000C9434000C94340070
:100040000C9434000C9434000C9434000C94340060
:100050000C94340011241FBECFE5D4E0DEBFCDBF29
:100060000E9436000C944D000C9400008FEF8ABB68
:1000700055E528EC30E04AEA5BBB80E197E2F90104
:100080003197F1F70197D9F74BBB80E197E2F9017E
:0E0090003197F1F70197D9F7EFCFF894FFCF32
:00000001FF
