S0130000546163686F6D65746572312E73726563D4
S11300000C942A000C9434000C9434000C943400A6
S11300100C9434000C9434000C9434000C9434008C
S11300200C9434000C9434000C9434000C9434007C
S11300300C9434000C9434000C9434000C9434006C
S11300400C9434000C9434000C9434000C9434005C
S11300500C94340011241FBECFE5D4E0DEBFCDBF25
S11300600E94AA000C94F0000C9400001DBC1CBC5F
S113007087E08EBD0895D898D998DA9A8FEC97E0E6
S11300800197F1F700C00000DA988FEC97E0019730
S1130090F1F700C000000895CF93C82F807F8BBB79
S11300A00E943B0020E1C29FC00111248BBB0E942F
S11300B03B00CF9108958FEF8ABB82E00E944C00F1
S11300C088E20E944C008EE00E944C0080E80E946E
S11300D04C000895D89AD998DA9A8FEC97E0019752
S11300E0F1F700C00000DA988FEC97E00197F1F780
S11300F000C000000895CF93C82F807F8BBB0E945F
S11301006A0020E1C29FC00111248BBB0E946A00D7
S1130110CF910895EF92FF920F931F93CF938C0189
S1130120C5E80F2EFAE0EF2EF12CF02D8C2F0E9453
S11301304C00C801B7010E94C8008B01805D0E9479
S11301407B00C150CF3791F7CF911F910F91FF9052
S1130150EF90089587B3827087BB0E9436000E9497
S11301605B001DBC1CBC2FEF83E294EF2150804048
S11301709040E1F700C000008CB59DB59C01220FB2
S1130180331F820F931F880F991F0E948A00E9CFA3
S113019097FB072E16F4009407D077FD09D00E9430
S11301A0DC0007FC05D03EF4909581959F4F08959F
S11301B0709561957F4F0895AA1BBB1B51E107C041
S11301C0AA1FBB1FA617B70710F0A61BB70B881FE3
S11301D0991F5A95A9F780959095BC01CD01089572
S10701E0F894FFCFBD
S9030000FC
