S01500004C63645F5363726F6C6C696E672E73726563F0
S11300000C942A000C943F000C943F000C943F0085
S11300100C943F000C943F000C943F000C943F0060
S11300200C943F000C943F000C943F000C943F0050
S11300300C943F000C943F000C943F000C943F0040
S11300400C943F000C943F000C943F000C943F0030
S11300500C943F0011241FBECFE5D4E0DEBFCDBF1A
S113006010E0A0E6B0E0ECEAF1E002C005900D92E9
S1130070A837B107D9F70E94CC000C94D4000C9493
S11300800000982F907F9BBBD898D998DA9ADA9879
S1130090EFECF7E03197F1F700C00000F0E18F9F3B
S11300A0C00111248BBBD898D998DA9ADA988FECCE
S11300B097E00197F1F700C0000008958FEF8ABB25
S11300C082E00E94410088E20E9441008EE00E948A
S11300D041000895982F907F9BBBD89AD998DA9ABB
S11300E0DA98EFECF7E03197F1F700C00000F0E1A7
S11300F08F9FC00111248BBBD89AD998DA9ADA98C9
S11301008FEC97E00197F1F700C0000008950F937A
S11301101F93CF93DF93CDB7DEB768970FB6F894EC
S1130120DEBF0FBECDBF8FE80E94410088E1E0E64C
S1130130F0E0DE01119601900D928A95E1F7898134
S11301408823B1F08E010E5F1F4F0E946A002FEFCB
S113015082E597E0215080409040E1F700C0000024
S11301608CE10E944100F80181918F018111EDCF52
S1130170FFEF22E587E0F15020408040E1F700C026
S1130180000068960FB6F894DEBF0FBECDBFDF91B6
S1130190CF911F910F9108950E945E000E948700E5
S10F01A081E00E944100FACFF894FFCFE8
S11301AC42697274686461797320617265206F7638
S10B01BC657272617465640050
S9030000FC
