:1000000071C0000079C0000077C0000075C000001A
:1000100073C0000071C000006FC000006DC0000020
:100020006BC0000069C0000067C0000065C0000030
:1000300063C0000061C000005FC000005DC0000040
:100040005BC0000059C0000057C0000055C0000050
:1000500053C0000051C000004FC000004DC0000060
:100060004BC0000049C0000047C0000045C0000070
:1000700043C0000041C000003FC000003DC0000080
:100080003BC0000039C0000037C0000035C0000090
:1000900033C0000031C000002FC000002DC00000A0
:1000A0002BC0000029C0000027C0000025C00000B0
:1000B00023C0000021C000001FC000001DC00000C0
:1000C0001BC0000019C0000017C0000015C00000D0
:1000D00013C0000011C000000FC000000DC00000E0
:1000E0000BC0000011241FBECFEFD1E2DEBFCDBF99
:1000F00000E00CBF50D0D1C083CFE1ECF0E0108223
:100100001092C00086E08093C2008FE58093C40007
:100110001092C50088E980830895E0ECF0E09081BA
:1001200095FFFDCF8093C6000895ECE7F0E0808155
:100130008064808380818068808380818F7D8083DC
:100140008081807E8083EBE7F0E08081877F808301
:10015000EAE7F0E08081806880830895EF92FF9263
:100160000F931F93CF93DF938C01C3E0D0E00F2E4A
:10017000FAE0EF2EF12CF02DC801B70167D08B010A
:10018000805DCBDF2197C1F7DF91CF911F910F9158
:10019000FF90EF900895C9DFB0DF81980CE710E081
:1001A000CAE7D0E00F2EF8E7EF2EF12CF02DF80182
:1001B000808181608083888180648883888184FFD6
:1001C000FDCFF70180819181C9DF888180618883BB
:1001D000FFEF2FE784E0F15020408040E1F700C0BE
:1001E0000000F80180818260808388818064888338
:1001F000888184FFFDCFF70180819181AFDF888105
:1002000080618883FFEF2FE784E0F1502040804039
:10021000E1F700C00000F80180818360808388815D
:1002200080648883888184FFFDCFF701808191817C
:1002300095DF888180618883FFEF2FE784E0F150AC
:1002400020408040E1F700C00000B1CF97FB072EAF
:1002500016F4009406D077FD08D00BD007FC05D02B
:100260003EF4909581959F4F0895709561957F4FCD
:100270000895AA1BBB1B51E107C0AA1FBB1FA617ED
:10028000B70710F0A61BB70B881F991F5A95A9F73F
:0E02900080959095BC01CD010895F894FFCFA4
:00000001FF
