:100000000C942A000C9434000C9434000C943400AA
:100010000C9434000C9434000C9434000C94340090
:100020000C9434000C9434000C9434000C94340080
:100030000C9434000C9434000C9434000C94340070
:100040000C9434000C9434000C9434000C94340060
:100050000C94340011241FBECFE5D4E0DEBFCDBF29
:100060000E9436000C945B000C94000087B3807FE4
:1000700087BB8AB38F608ABB42E035E02AE098E014
:1000800086B38F70853099F028F4823041F0843047
:1000900041F00FC0863039F0883039F00AC02BBBF0
:1000A000EFCF9BBBEDCF4BBBEBCF3BBBE9CF1BBA3D
:0A00B000E7CF1BBAE5CFF894FFCFAD
:00000001FF
