:100000000C942A000C9434000C9434000C943400AA
:100010000C9434000C9434000C9434000C94340090
:100020000C9434000C9434000C9434000C94340080
:100030000C9434000C9434000C9434000C94340070
:100040000C9434000C9434000C9434000C94340060
:100050000C94340011241FBECFE5D4E0DEBFCDBF29
:100060000E9436000C9450000C9400008AB38F60FC
:100070008ABB84B3807F84BB989B02C0D89AFCCF94
:10008000999B02C0D99AF8CF9A9B02C0DA9AF4CF12
:100090009B9B02C0DB9AF0CF8BB3807F8BBBECCFF6
:0400A000F894FFCF02
:00000001FF
