:100000000C942A000C943F000C943F000C943F0089
:100010000C943F000C943F000C943F000C943F0064
:100020000C943F000C943F000C943F000C943F0054
:100030000C943F000C943F000C943F000C943F0044
:100040000C943F000C943F000C943F000C943F0034
:100050000C943F0011241FBECFE5D4E0DEBFCDBF1E
:1000600010E0A0E6B0E0E2E9F1E002C005900D92F8
:10007000AC36B107D9F70E94AC000C94C7000C94C1
:100080000000DF93CF93CDB7DEB72B970FB6F89470
:10009000DEBF0FBECDBFDE011196E0E6F0E08BE0E3
:1000A00001900D928150E1F7DE01119640ED57E08D
:1000B00028EC30E010C08BBBC09AC198C29AC2989D
:1000C000CA010197F1F788EE93E0F9013197F1F752
:1000D0000197D9F711968C91882369F72B960FB663
:1000E000F894DEBF0FBECDBFCF91DF9108958FEFA3
:1000F0008ABB87B3876087BB88E38BBBC098C198F6
:10010000C29AC29820ED37E0C9010197F1F786E065
:100110008BBBC098C198C29AC298C9010197F1F7E8
:100120008EE08BBBC098C198C29AC298C901019752
:10013000F1F781E08BBBC098C198C29AC298C901FF
:100140000197F1F780E88BBBC098C198C29AC2981A
:10015000C9010197F1F708950E9477000E944100BC
:1001600080E090E008958BBBC098C198C29AC29875
:1001700080ED97E00197F1F708958BBBC09AC19885
:10018000C29AC29880ED97E00197F1F70895F8942C
:02019000FFCF9F
:0C019200474F44204953204F4E450000C9
:00000001FF
