:100000000C942A000C9434000C9434000C943400AA
:100010000C9434000C9434000C9434000C94340090
:100020000C9434000C9434000C9434000C94340080
:100030000C9434000C9434000C9434000C94340070
:100040000C9434000C9434000C9434000C94340060
:100050000C94340011241FBECFE5D4E0DEBFCDBF29
:100060000E94A9000C94F9000C940000D09880EC38
:1000700087B987EA86B90895282F207F22BB9098F8
:100080009198929A929820ED37E0F9013197F1F723
:1000900090E044E0880F991F4A95E1F782BB909861
:1000A0009198929A9298C9010197F1F708958FEF6C
:1000B00081BB82E00E943C0088E20E943C008EE00E
:1000C0000E943C000895282F207F22BB909A91988F
:1000D000929A20ED37E0F9013197F1F79298F90102
:1000E0003197F1F790E054E0880F991F5A95E1F7A6
:1000F00082BB909A9198929AC9010197F1F79298D0
:10010000C9010197F1F70895EF92FF920F931F93A2
:10011000F82E092F15E88F2D902F6AE070E00E94CD
:10012000D200E82E8F2D902F6AE070E00E94D2005E
:10013000F62E072F812F0E943C008E2D805D0E949D
:10014000630011501F3739F71F910F91FF90EF9007
:100150000895D09880EC87B987EA86B90E94570045
:10016000369A309BFECF349A84B195B19695879597
:10017000969587950E948400F3CF909A9198929AD1
:1001800080ED97E0FC013197F1F792980197F1F734
:10019000089590989198929A929880ED97E001979F
:1001A000F1F7089597FB092E07260AD077FD04D0B2
:1001B0000CD006D000201AF4709561957F4F0895F9
:1001C000F6F7909581959F4F0895AA1BBB1B51E1AF
:1001D00007C0AA1FBB1FA617B70710F0A61BB70BB7
:1001E000881F991F5A95A9F780959095BC01CD015C
:0601F0000895F894FFCF12
:00000001FF
