S00C0000444455432E73726563F8
S113000012C019C018C017C016C015C014C013C040
S113001012C011C010C00FC00EC00DC00CC00BC068
S11300200AC009C008C011241FBECFE5D4E0DEBF5A
S1130030CDBF02D028C0E4CF87B38F6187BB61E016
S113004070E088B3807E88BB80E090E048B39B0179
S1130050082E02C0220F331F0A94E2F7242B28BB78
S113006080FD02C0C49A01C0C4982FE734E84EE171
S1130070215030404040E1F700C000000196843038
S10D0080910521F7DECFF894FFCFBD
S9030000FC
