:100000000C942A000C9434000C9434000C943400AA
:100010000C9434000C9434000C9434000C94340090
:100020000C9434000C9434000C9434000C94340080
:100030000C9434000C9434000C9434000C94340070
:100040000C9434000C9434000C9434000C94340060
:100050000C94340011241FBECFE5D4E0DEBFCDBF29
:100060000E9408010C9411010C940000982F907FBD
:1000700092BB90989198929AEFECF7E03197F1F754
:1000800000C000009298EFECF7E03197F1F700C064
:100090000000F0E18F9FC001112482BB90989198DD
:1000A000929A8FEC97E00197F1F700C000009298C8
:1000B000EFECF7E03197F1F700C0000008958FEF03
:1000C00081BB82E00E94360088E20E9436008EE00A
:1000D0000E94360080E80E9436000895982F907F95
:1000E00092BB909A9198929AEFECF7E03197F1F7E2
:1000F00000C000009298EFECF7E03197F1F700C0F4
:100100000000F0E18F9FC001112482BB909A91986A
:10011000929A8FEC97E00197F1F700C00000929857
:10012000EFECF7E03197F1F700C0000008958BB3D2
:100130008E7F8E608BBBCC9906C081E00E9436001A
:1001400081E30E946E00CD9906C081E00E943600D6
:1001500082E30E946E00CE9906C081E00E943600C4
:1001600083E30E946E008BB38D7F8D608BBBCC9937
:1001700006C081E00E94360084E30E946E00CD99A3
:1001800006C081E00E94360085E30E946E00CE9991
:1001900006C081E00E94360086E30E946E008BB3A9
:1001A0008B7F8B608BBBCC9906C081E00E943600B0
:1001B00087E30E946E00CD9906C081E00E94360060
:1001C00088E30E946E00CE9906C081E00E9436004E
:1001D00089E30E946E008BB3877F87608BBBCC99CD
:1001E00006C081E00E9436008AE20E946E00CD992E
:1001F00006C081E00E94360080E30E946E00CE9926
:1002000006C081E00E94360083E20E946E000895DD
:1002100080EF8BBB8FE08ABB0E945F000E9497003B
:06022000FDCFF894FFCFB2
:00000001FF
