:100000000C942A000C9434000C9434000C943400AA
:100010000C9434000C9434000C9434000C94340090
:100020000C9434000C9434000C9434000C94340080
:100030000C9434000C9434000C9434000C94340070
:100040000C9434000C9434000C9434000C94340060
:100050000C94340011241FBECFE5D4E0DEBFCDBF29
:100060000E9436000C944A000C940000D09A28ECB0
:1000700030E0D89A88E893E1F9013197F1F70197D8
:10008000D9F7D89888E893E1F9013197F1F701970A
:08009000D9F7EFCFF894FFCF80
:00000001FF
