:100000000C942A000C9447000C9447000C94470071
:100010000C9447000C9447000C9447000C94470044
:100020000C9447000C9447000C9447000C94470034
:100030000C9447000C9447000C9447000C94470024
:100040000C9447000C9447000C9447000C94470014
:100050000C94470011241FBECFE5D4E0DEBFCDBF16
:1000600010E0A0E6B0E0E4EAF3E002C005900D92F3
:10007000A838B107D9F720E0A8E8B0E001C01D9288
:10008000AF38B207E1F70E94BE010C94D0010C9486
:100090000000A898A998AA9AAA988FEC97E00197CF
:1000A000F1F700C000000895CF93C82F807F85BB73
:1000B0000E94490020E1C29FC001112485BB0E941B
:1000C0004900CF9108958FEF84BB82E00E945400D5
:1000D00088E20E9454008EE00E94540080E80E9452
:1000E00054000895A89AA998AA9AAA988FEC97E024
:1000F0000197F1F700C000000895CF93C82F807FCB
:1001000085BB0E94720020E1C29FC001112485BB03
:100110000E947200CF910895CF93DF93EC01888104
:10012000882379F021960E947D002FE788E391E0F3
:10013000215080409040E1F700C00000899181117A
:10014000F2CFDF91CF910895DC988BB3806E8BBB9B
:10015000C89916C081E00E94540080E690E00E9499
:100160008C008091880090918900FC01E657FF4F38
:1001700027E020830196909389008093880008955A
:10018000C99916C081E00E94540080E690E00E9468
:100190008C008091880090918900FC01E657FF4F08
:1001A00024E020830196909389008093880008952D
:1001B000CA9916C081E00E94540080E690E00E9437
:1001C0008C008091880090918900FC01E657FF4FD8
:1001D00021E0208301969093890080938800089500
:1001E000DD988BB3806D8BBBC89916C081E00E94EF
:1001F000540080E690E00E948C00809188009091ED
:100200008900FC01E657FF4F28E020830196909378
:100210008900809388000895C99916C081E00E94E2
:10022000540080E690E00E948C00809188009091BC
:100230008900FC01E657FF4F25E02083019690934B
:100240008900809388000895CA9916C081E00E94B1
:10025000540080E690E00E948C008091880090918C
:100260008900FC01E657FF4F22E02083019690931E
:100270008900809388000895DE988BB3806B8BBBD8
:10028000C89916C081E00E94540080E690E00E9468
:100290008C008091880090918900FC01E657FF4F07
:1002A00029E0208301969093890080938800089527
:1002B000C99916C081E00E94540080E690E00E9437
:1002C0008C008091880090918900FC01E657FF4FD7
:1002D00026E02083019690938900809388000895FA
:1002E000CA9915C081E00E94540080E690E00E9407
:1002F0008C008091880090918900FC01E657FF4FA7
:1003000023E02083019690938900809388000895CC
:1003100082E690E00E948C000E94A40080918800F8
:100320009091890085309105BCF3FC01E657FF4FA1
:100330001082109289001092880061E770E08AE8CC
:1003400090E00E94C701892B29F486E790E00E9483
:100350008C0008958EE790E00E948C008AE890E07F
:100360000E948C002FEF84E39CE02150804090405D
:10037000E1F700C000000E94880108958FE08BBB68
:1003800080EF8ABB0E9463000E948801FDCFFB01C1
:10039000DC018D91019080190110D9F3990B08951A
:0403A000F894FFCFFF
:1003A4002A00456E7465722070617373776F72648E
:1003B40000313233340057656C636F6D65007472BD
:0803C4007920616761696E0098
:00000001FF
