S01400004C65645F427574746F6E5F322E737265638F
S11300000C942A000C9434000C9434000C943400A6
S11300100C9434000C9434000C9434000C9434008C
S11300200C9434000C9434000C9434000C9434007C
S11300300C9434000C9434000C9434000C9434006C
S11300400C9434000C9434000C9434000C9434005C
S11300500C94340011241FBECFE5D4E0DEBFCDBF25
S11300600E9436000C9448000C9400008AB383600C
S11300708ABB84B38C7F84BB989B02C0D89AFCCF84
S1130080999B02C0D99AF8CF8BB38C7F8BBBF4CFEA
S1070090F894FFCF0E
S9030000FC
